:0600000002010B02001ECC
:03000B0002007B75
:10001B00020100C320A01520B7010820B60118B8B3
:10002B0064027800B8FF3E786302007020A11B20A9
:10003B00B7010920B60119B93C0579000880E0B970
:10004B00FF2318793B80D802007020A21820B7013B
:10005B000A20B6011ABA3C057A000980DABAFF0504
:10006B00197A3B80D275330AD203020156C203328E
:10007B00C28D758CB1758ADF0EBE19787E00B20306
:10008B000D300613BD0007C28EC2B00200EABD01DF
:10009B004E7D00C20680EA300421BD00117535FE8D
:1000AB0075340B85358D85348BD28E0200EABD02FB
:1000BB002E7D00C204D206D20580C6300521BD00BC
:1000CB00117535FF75340585358D85348BD28E02D0
:1000DB0000EABD010A7D00C205D206D20480A2301F
:1000EB0003120ABA3C037A0009B93C03790008B839
:1000FB006402780032C28FB2B085358D85348B3275
:10010B0075A800780079007A007E007D00758170FB
:10011B0075800075900075A0FF75B0FED200D201FE
:10012B00D202D203C203753200C28CC28E758CB15F
:10013B00758ADF758911D2A9D2ABD2AF1202F475D1
:10014B00A0FF30A33FC28CC28ED2A80532E532B4D9
:10015B000F2775320020A009D201D202B200020192
:10016B008420A109D200D202B20102018420A2098B
:10017B00D200D201B2020201843003361202F4D54E
:10018B0033C90178208C2BD200D201D202D2037555
:10019B00B0FE7D00D204C205C206758CB1758ADF34
:1001AB007535FE75340B85358D85348BC2A8D28C95
:1001BB00D28E8088758000759000C5F0B40105D291
:1001CB008002020AB40205D28102020AB40305D2EC
:1001DB008202020AB40405D28302020AB40505D2D4
:1001EB008402020AB40605D28502020AB40705D2BC
:1001FB008602020AB40805D28702020A0202AEC5C1
:10020B00F0B4000FD290D291D292D293D294D295D5
:10021B000202AEB40107D291D2920202AEB4020D29
:10022B00D290D291D296D294D2930202AEB4030D55
:10023B00D290D291D296D292D2930202AEB4040B48
:10024B00D295D296D291D2920202AEB4050DD29033
:10025B00D295D296D292D2930202AEB4060FD2901E
:10026B00D295D294D296D292D2930202AEB407090F
:10027B00D290D291D2920202AEB40813D290D29104
:10028B00D292D293D294D295D296D2970202AEB496
:10029B00090FD290D291D295D296D292D2930202DA
:1002AB00AED2967530047531EBD531FDD530F722D2
:1002BB00E875F00A84AFF075F00131BFCF75F0022D
:1002CB0031BF22E975F00A84AFF075F00431BFCF6E
:1002DB0075F00531BF22EA75F00A84AFF075F007AF
:1002EB0031BFCF75F00831BF22758000759000309B
:1002FB00000251BB30010251CE30020251E1740AAF
:0B030B0075F00331BF75F00631BF2212
:00000001FF
